S0160000747261666669635F6C69676874732E7372656345
S11300000C9448000C945A000C945A000C945A0016
S11300100C945A000C945A000C945A000C94AA00A4
S11300200C9486000C94CE000C945A000C945A0044
S11300300C945A000C945A000C945A000C945A00D4
S11300400C945A000C945A000C945A000C945A00C4
S11300500C945A000C945A000C945A000C945A00B4
S11300600C945A000C945A000C945A000C945A00A4
S11300700C945A000C945C000C945A000C945A0092
S11300800C945A000C945A000C945A000C945A0084
S113009011241FBECFEFCDBFDFE3DEBF28E2A0E017
S11300A0B8E201C01D92A230B207E1F70E94E70056
S11300B00C9414010C9400001F920F920FB60F922F
S11300C011248F939F93EF93FF9380910028909135
S11300D00128892B91F4E0EAF4E08185818781E0AD
S11300E090E08093002890930128E0E0FAE0838771
S11300F089E180A3828581608287FF91EF919F913E
S11301008F910F900FBE0F901F9018951F920F9212
S11301100FB60F9211248F939F93EF93FF9381E077
S113012090E08093002890930128E0E0FAE0838730
S113013089E180A382858160828782E0838784E667
S113014081A3FF91EF919F918F910F900FBE0F901C
S11301501F9018951F920F920FB60F9211248F9330
S11301609F93EF93FF9382E090E080930028909315
S11301700128E0E0FAE082858E7F828780E1838730
S113018082E380A3828580618287FF91EF919F91B2
S11301908F910F900FBE0F901F9018951F920F9282
S11301A00FB60F9211248F93EF93FF9310920028B0
S11301B010920128E0E0FAE082858F7E8287FF9129
S11301C0EF918F910F900FBE0F901F901895E0E65E
S11301D0F4E080818760808384E08483E0EAF4E053
S11301E085898960858BE0E0FAE08FE0808381E097
S11301F0838384E681A310A68285826082877894B3
S11302008091002890910128019721F481E0809346
S11302106404F6CF8091002890910128029781F719
S10F022084E080936404ECCFF894FFCFDA
S9030000FC
