S015000046616E5F73696D756C61746F722E73726563BB
S11300000C9448000C945A000C945A000C945A0016
S11300100C945A000C945A000C945A000C94AF009F
S11300200C945A000C94D3000C94E5000C945A00E0
S11300300C945A000C945A000C945A000C945A00D4
S11300400C945A000C945A000C945A000C945A00C4
S11300500C945A000C945A000C945A000C945A00B4
S11300600C945A000C945A000C945A000C945A00A4
S11300700C945A000C947D000C945A000C945A0071
S11300800C945A000C945A000C945A000C945A0084
S113009011241FBECFEFCDBFDFE3DEBF28E2A0E017
S11300A0B8E201C01D92A230B207E1F70E947900C4
S11300B00C94FB000C94000083E080936104E0EA5C
S11300C0F4E090E492839BE0968BE0E0FAE09EE01B
S11300D09083818383E190E086A397A38CE090E0F2
S11300E080A791A780E190E082A793A781E382870C
S11300F008950E945C007894FFCF1F920F920FB670
S11301000F9211248F93EF93FF9380E48093A904BB
S1130110809101288F5F809301288091012881308C
S113012031F4E0E0FAE080818160808310C0809146
S11301300128833061F4E0E0FAE080818E7F8083DF
S113014083E0809366041092012810920028FF91A6
S1130150EF918F910F900FBE0F901F9018951F92E3
S11301600F920FB60F9211248F9381E080930B0AA4
S113017080936504809100288F5F8093002880918C
S11301800028813021F482E08093650406C08091C8
S11301900028823010F0109200288F910F900FBE2B
S11301A00F901F9018951F920F920FB60F92112463
S11301B08F9380E180930B0A81E0809366048F9192
S11301C00F900FBE0F901F9018951F920F920FB6AD
S11301D00F9211248F9380E280930B0A8091002860
S11301E0813019F482E0809366048F910F900FBEE2
S10D01F00F901F901895F894FFCFAC
S9030000FC
