:100000000C9448000C9465000C9465000C946500F9
:100010000C9465000C9465000C9465000C946500CC
:100020000C9465000C94D3010C949A010C94650017
:100030000C9465000C9465000C9465000C946500AC
:100040000C9465000C9465000C9465000C9465009C
:100050000C9465000C9465000C9465000C94C4002D
:100060000C9465000C9465000C9465000C9465007C
:100070000C9465000C940B020C9465000C946500C4
:100080000C9465000C9465000C9465000C9465005C
:1000900011241FBECFEFCDBFDFE3DEBF18E2A0E02B
:1000A000B8E2ECE6F4E002C005900D92A430B1078E
:1000B000D9F728E2A4E0B8E201C01D92AA30B20745
:1000C000E1F70E9483000C9434020C940000E0E0FD
:1000D000F6E0808180838081816080838681876073
:1000E000868384858160848784E190E0848B958B0E
:1000F0008AE090E0828B938B828582608287848104
:10010000826084830895E0E6F4E0808182608083E9
:1001100082E08683808181608083848181608483A2
:10012000808184608083848184608483E0EAF4E059
:1001300085898960858B0E946700E0E0FAE010A263
:1001400011A2118288E290E080A791A784E190E05B
:1001500082A793A78EE08083808181608083A0E066
:10016000B6E018968C911897816018968C9380E26F
:10017000828778948091002890910128892BD1F76B
:10018000F89480E090E008951F920F920FB60F92BE
:1001900011242F938F939F93EF93FF93E0E0F6E06A
:1001A000838583878091062890910728009709F01E
:1001B0005BC080910828909109280097B9F4E0E687
:1001C000F4E081E0848381EE94E00197F1F700C0D0
:1001D000000082E084838091022890910328865A4F
:1001E0009F4F809302289093032818C00197B1F481
:1001F000E0E6F4E084E0848381EE94E00197F1F797
:1002000000C0000082E0848380910228909103283E
:100210008A5591098093022890930328809104289D
:100220009091052801968093042890930528809149
:10023000022890910328181619060CF471C0109228
:1002400000281092012887E080936604E0E0FAE03D
:1002500082858F7D828782858F7E8287E0E0F6E0CF
:1002600082858D7F82875CC0019709F059C080919B
:100270000828909109280097B9F4E0E6F4E084E0BA
:10028000848381EE94E00197F1F700C0000082E0E2
:10029000848380910228909103288A559109809344
:1002A00002289093032818C00197B1F4E0E6F4E027
:1002B00081E0848381EE94E00197F1F700C00000B3
:1002C00082E084838091022890910328865A9F4F70
:1002D0008093022890930328809104289091052808
:1002E000019780930428909305288091022890918B
:1002F000032888369140A4F010920028109201281B
:1003000087E080936604E0E0FAE082858F7D828753
:1003100082858F7E8287E0E0F6E082858D7F82870E
:10032000FF91EF919F918F912F910F900FBE0F90A2
:100330001F9018951F920F920FB60F9211242F93B2
:100340003F938F939F93AF93BF93EF93FF93E0E01F
:10035000FAE08385838782858F7D8287A0E0B6E07F
:1003600091E014969C9314978C9182608C9321E079
:1003700030E0209308283093092810A211A280E1D0
:10038000838782858061828718969C93FF91EF9185
:10039000BF91AF919F918F913F912F910F900FBE81
:1003A0000F901F9018951F920F920FB60F92112465
:1003B0008F93AF93BF93EF93FF93E0E0FAE08385D1
:1003C000838782858F7E8287A0E0B6E08C918D7FC7
:1003D0008C9382E014968C931497109208281092B4
:1003E00009281B968C911B971B968C931B9710A228
:1003F00011A280E2838782858062828781E01896DD
:100400008C93FF91EF91BF91AF918F910F900FBEA1
:100410000F901F9018951F920F920FB60F921124F4
:100420008F939F93EF93FF93E0EAF4E081858187B8
:100430008091062890910728009739F481E090E098
:10044000809306289093072806C0019721F4109204
:10045000062810920728FF91EF919F918F910F909E
:0C0460000FBE0F901F901895F894FFCF6E
:04046C000100680122
:00000001FF
