:100000000C9448000C945A000C945A000C945A001A
:100010000C945A000C945A000C945A000C945A00F8
:100020000C945A000C945A000C945A000C945A00E8
:100030000C945A000C945A000C945A000C945A00D8
:100040000C945A000C945A000C945A000C945A00C8
:100050000C945A000C945A000C945A000C945A00B8
:100060000C945A000C945A000C945A000C945A00A8
:100070000C945A000C94A3000C945A000C945A004F
:100080000C945A000C945A000C945A000C945A0088
:1000900011241FBECFEFCDBFDFE3DEBF28E2A0E01B
:1000A000B8E201C01D92A430B207E1F70E945C00E3
:1000B0000C94FF000C940000E0E6F4E0808187607F
:1000C00080838481887F8483E0EAF4E08589896085
:1000D000858B86898960868B78948091022890919F
:1000E0000328009749F42091002830910128232B00
:1000F00019F410926404F1CF8130910551F42091EC
:10010000002830910128232B21F482E0809364049D
:10011000E4CF029751F48091002890910128892B17
:1001200021F484E080936404D8CF809100289091DA
:100130000128019791F681E08093640410920028D1
:1001400010920128CACF1F920F920FB60F9211245E
:100150002F933F938F939F93EF93FF938091A904E5
:1001600085FF14C08091A90486FD10C080910228EB
:10017000909103288230910528F4019680930228FB
:100180009093032880E28093A9042EC08091A90453
:1001900086FF16C08091A90485FD12C080910228B7
:1001A000909103289C01215031092230310520F41F
:1001B000209302283093032880E48093A90414C07C
:1001C0008091A90485FF10C08091A90486FF0CC00E
:1001D00081E090E08093002890930128E0EAF4E029
:1001E00080E2818780E48187FF91EF919F918F91D9
:1001F0003F912F910F900FBE0F901F901895F8947C
:02020000FFCF2E
:00000001FF
